S01A000053656E736F72426F61726450726F6A6563742E73726563D1
S214000000004D0020DDE20000D9E20000D9E2000049
S21400001000000000000000000000000000000000DB
S214000020000000000000000000000000D9E2000010
S2140000300000000000000000D9E20000D9E2000045
S214000040D9E20000D9E200000D0E0000559F000026
S214000050D9E20000D9E20000552C0000D9E20000E9
S214000060899E0000999E0000A99E0000B99E00008F
S214000070C99E0000D99E0000D9E20000D9E2000027
S214000080D9E20000B5150000C5150000000000000C
S21400009000000000D5150000D9E20000D9E20000FB
S2140000A0D9E20000D9E20000D9E20000D9E200005F
S2140000B00000000010B5064C2378002B07D1054B36
S2140000C0002B02D0044800E000BF0123237010BDBF
S2140000D09804002000000000A0650100084B10B541
S2140000E0002B03D00749084800E000BF0748036814
S2140000F0002B00D110BD064B002BFBD09847F9E72C
S214000100000000009C040020A0650100A06501001E
S21400011000000000002070470B4B5B881A0A002086
S214000120032A00D07047FC321A42FBD1064BDB880C
S214000130042BF7D1044B054A9A60054A1A6104223B
S2140001409A810130EEE7C046D4290020C004002082
S214000150110200000122014B1A707047B4040020FF
S21400016010B582B0044B00934023044A00210220BD
S214000170034CA04702B010BDBD01000004050020DE
S2140001809522000010B50023074A1370074A137023
S2140001900122074B1A70074B9847002800D110BD64
S2140001A0054B9847FBE7C046BC040020B804002077
S2140001B0B404002061010000AD3C000010B500282A
S2140001C003D1402902D0034B984710BD0248034B89
S2140001D09847F8E76101000004050020B53C0000E0
S2140001E010B5014B984710BDB13C000010B5034B4D
S2140001F0034A04490448054CA04710BD19010000F5
S21400020014000020B8040020BC040020C102000036
S21400021010B5044B9B89042B00D010BD0248034B3D
S2140002209847FAE7D4290020C0040020113D0000BA
S21400023070B584B005001B4B1878002801D104B0B7
S21400024070BDEFF310835A425341039372B6BFF367
S2140002505F8F0022144B1A70039E144C403200210C
S2140002602000134B9847402229002000114B984746
S214000270114B009340232200002181200F4CA04701
S21400028001235840074B1870002E05D00122064B5C
S2140002901A70BFF35F8F62B6024B1878012358407E
S2140002A0CDE7C046B4040020C6020020C4040020E7
S2140002B0FF090100C9090100550100009522000050
S2140002C070B5050014003B4A127850B2002805DBD2
S2140002D0602422400020202A4FD070BD60200240BB
S2140002E003D13448407806280DD00020202AF4D1C7
S2140002F0304A5278022A34D0032A38D00020012A05
S214000300EBD19847E9E72C4B98470300827A002008
S214000310212AE2D1274A5288120A212A13D0D97BF1
S21400032000209142D9D1234A9460197C09331B7A64
S2140003301B020B43D088191C9BB2834200D9011CB8
S21400034091810120C9E71B4A1900093191605B7A47
S214000350D088191C9BB2834200D9011C91810120D0
S214000360BBE7144B9D6001229A810120B5E7114B33
S214000370996001229A810120AFE70E4A52780A2A34
S21400038006D00B2A0AD00020092AA6D19847A4E74F
S214000390084B5B881B0A2B7001209EE7054BDB8809
S2140003A00020002B00D098E7024B5B880B700130D2
S2140003B093E7C046D42900205905000010B5114B1C
S2140003C01B681A689478D3781B022343D2180378E4
S2140003D0C018904210D24378042B0FD08B420AD01C
S2140003E00378C018904205D24378042B08D08B427D
S2140003F0F6D100E0002010BD0020FCE70020FAE760
S2140004000020F8E75005002010B5034B5B887F20DE
S2140004101840024B984710BDD42900206D240000D8
S21400042070B5194B1B780022002B29D0174B1B6880
S2140004301B681C79844223D9154A13609A78DC78A5
S214000440240214431C19A3421CD20025012607E0EF
S2140004500F4A13600FE01A789B183500A3420CD29F
S2140004605A78042AF7D19A788242F4D1DA788A4206
S214000470F1D1002DECD1012202E0054A13600022E2
S214000480100070BD0022FBE74C0500205005002040
S21400049054050020F0B5C64600B504000021134BF5
S2140004A09847051E03D1280004BC9046F0BD104BAB
S2140004B01B685B68A200D3589846DB689847010023
S2140004C020000A4B9847051EEDD00A4B1C680A4EC2
S2140004D00A4F05212000B047041E02D08078B84796
S2140004E0F7E743465B689847DDE7C046210400000F
S2140004F05005002054050020BD030000AD1F00007D
S214000500F8B505000F4B9847002819D00E4B1C680D
S2140005100E4E0F4F05212000B047041E09D0037968
S214000520427912021A43C1788078B8470028F1D180
S21400053006E0084B1B685B68AD00EB581B689847E5
S214000540F8BDC0462104000054050020BD0300008D
S2140005500520000050050020014B18687047C04673
S2140005605405002010B5014B984710BD1D2500000E
S21400057070B5124B1B78002B11D0114B1B681B68F3
S2140005801B79002B0BD000240E4E0D4D2000B047DB
S2140005900134E4B22B681B681B79A342F6D800220C
S2140005A0064B1A70084B1B889B0703D40022064B89
S2140005B01A8070BD054B9847F8E7C0464C050020EA
S2140005C0500500209504000044050020B13C0000C2
S2140005D070B50E4B1B78002B17D00D4B1B681A6896
S2140005E01279002A11D00024094D06E00134E4B245
S2140005F02B681A681279A24207D95B68A200D35802
S2140006001B69002BF2D09847F0E770BD4C05002020
S21400061050050020F8B5B64B00229A811A615A613F
S2140006201B785AB2002A13DB60221A4200D1D7E0A8
S214000630AF4B1A781F231340012B00D18EE1AC4B31
S2140006401A781F2313400020022B00D1DFE1F8BDEB
S214000650A74AD2880020002AF9D060211942E7D1A3
S2140006601F210B4008D1A2494978062923D0082922
S21400067000D184E0002917D0012B00D187E0022B9F
S214000680D6D19B4B5B780020002B00D02BE1022AB2
S214000690D5D1974B1879974B9847974B18800221DE
S2140006A01800964B9847FDE0022AC8D102319448BC
S2140006B0924B9847F6E08E4B5A88130A022B23D0AB
S2140006C0D9B202290FD9032B34D00F2B00D09CE1CE
S2140006D08C4B98680028B2D08378C17809021943F9
S2140006E0864B984707E0012B00D08EE1854B1868B3
S2140006F00178824B98477E4BDA889B89934200D8D4
S214000700D0E07B4B9A81CDE0D2B27E4B1B685B7CFF
S214000710934200D893E77B4B5B68D200D05883782F
S214000720C17809021943754B9847714B9B680222A2
S2140007305A70E0E7FF231A40012A1DD0002A16D07F
S214000740022A00D074E7704C1420704A023200234C
S214000750E15C118001330232D9B28142F8D3410004
S21400076002316A48017089B2644B9847C3E7042196
S2140007706748624B9847BEE7664C1920E5E7012AB2
S21400078000D05CE7012164485C4B98478AE05849F2
S21400079049780A2900D072E7012A00D0DEE05E4BD5
S2140007A01B78002B00D1D9E0514B1C795B4B1D68A0
S2140007B02B681B79A34200D8D0E000212000584BBC
S2140007C09847002800D133E76B68A400E358DB683D
S2140007D09847544B187001211800484B984761E021
S2140007E01F22134072D1424A5278032A5CD0D1B2FB
S2140007F003293BD9052A4DD0092A67D13C4BDB8813
S214000800002B00D01BE7484B9847002800D10FE785
S214000810374B9A783B4B1B685B7C9A4200DD07E7B8
S214000820424B9847324B9B783B4A1370002B39D08B
S2140008303F4A94466344DB00324A5268D318374A2C
S21400084013601B681B79002B2CD00024394D160032
S21400085000212000A847002800D1E9E60134E4B2D0
S21400086033681B681B79A342F2D81BE0012A2DD1FE
S2140008701F4BDB88002B00D0E1E61D4B5B88012B6D
S21400088000D0DCE61E4A138802218B4313802A4BD5
S214000890984707E0164BDB88002B00D0CFE6274AA8
S2140008A0134B1A610120D2E6114BDB88002B00D0D7
S2140008B0C5E60F4B5B880020012B14D1104A138825
S2140008C002210B4313801E4B9847EBE7012B39D0D0
S2140008D0022B00D0ACE6064B5B78012B74D0032BC2
S2140008E000D180E00020002800D0B0E6A0E6C04698
S2140008F0D42900200D210000460500208D2400008C
S214000900440500204C000020F8000020A400002031
S214000910D8000020DC0000204C05002050050020F8
S21400092021040000480500207D2400007105000019
S214000930FFFFFF1F01050000B13C00000904000096
S214000940B33C0000464A52780B2AC1D1444BDB88A0
S214000950002B03D1434B1B78002B27D1414B1B7830
S2140009600020002B00D172E63D4B1C793E4B1D68E3
S2140009702B681B79A34200D869E6002120003B4B78
S2140009809847002800D15AE66B68A200D558EB6855
S214000990984701002000354B9847002800D14EE6C6
S2140009A0AB689847002800D051E648E62C4B1D79E6
S2140009B05C8828002E4B9847002800D138E6E1B224
S2140009C028002C4B98478EE7254BDB88002B00D061
S2140009D035E6234B5B88002B00D030E6204B187999
S2140009E0254B98477FE71E4BDB88002B00D026E67A
S2140009F01B4B5B88002B00D021E6194C20791F4B3F
S214000A00984720791E4B98476DE700206BE7154BFB
S214000A101B78002B00D11AE6134B1B681A68127954
S214000A20002A1AD00025114E0F4F5B68AA00D45832
S214000A30E368984701002800B047002800D106E682
S214000A40A3689847002800D001E60135EDB23B6860
S214000A501A681279AA42E8D8F9E50020F7E5C046F8
S214000A60D42900204C050020500500202104000059
S214000A70950400000105000051220000711F0000CF
S214000A8021210000064A137802210B43137001202F
S214000A9053681942FCD153681842F9D17047C046D2
S214000AA000240040064A137802218B43137001206D
S214000AB053681942FCD153681842F9D17047C046B2
S214000AC00024004000B583B0174A516980239B007C
S214000AD00B43536101A900230B700320134B984767
S214000AE00320134B9847134A137801210B431370C6
S214000AF00131012053681942FCD153681842F9D1DC
S214000B000C4A137810218B4313700B4B190040319D
S214000B10002204C38B42FCD10822084B1A60084B03
S214000B20984703B000BDC046000400407DE10000C9
S214000B300DE10000002400409C27002000E100E0BA
S214000B40850A00000023036043600122027283725C
S214000B500132C27243727047F0B583B005000C00D4
S214000B601C4B984701A900234B70CB7023790B7060
S214000B70237A8B702078184B984700211F2D00D8B9
S214000B80164907222A409200E77AA37A002B01D062
S214000B9008231F43EB089B00CB18D8690F26964006
S214000BA0B04397403A000243DA61637A002B0BD1D8
S214000BB08A690123AB40DB431B041B0C13408B618B
S214000BC0074B984703B0F0BD8A690123AB40134337
S214000BD08B61F5E7A50A000079E2000000240040DA
S214000BE0850A000003681869431E9841C0B2704722
S214000BF070B5040006680422084B1A60084D2000F1
S214000C00A8470028FBD13388022213433380044DC3
S214000C102000A8470028FBD170BDC04600E100E0D8
S214000C20E50B000070B504000668042180230A4A1C
S214000C30D1500A4D2000A8470028FBD1084B33812D
S214000C40B3813388022293433380044D2000A847A3
S214000C500028FBD170BDC04600E100E0E50B0000B7
S214000C60FF81FFFF70B5040006680A4B9847002313
S214000C70A386E386084D2000A8470028FBD13388CA
S214000C80012213433380044D2000A8470028FBD1DF
S214000C9070BDC046250C0000E50B0000F8B504004A
S214000CA00E0007680C4D2000A8470028FBD12379CA
S214000CB0002B09D01720012B05D1BE61064D200060
S214000CC0A8470028FBD1F8BD044B17209E42FAD84F
S214000CD0B6B23E83F2E7C046E50B0000FFFF000019
S214000CE070B504000668084D2000A8470028FBD110
S214000CF02379002B04D00020012B00D1B06970BDF1
S214000D00308B80B2FBE7C046E50B0000F0B583B041
S214000D100400019115000668134F2000B84700280C
S214000D20FBD12379002B0ED0012B19D11730012DC2
S214000D3017D80835AD00019BAB510B4D2000A847D6
S214000D400028FBD10DE01720022D0AD8074B019A88
S214000D509A4206D86B469B8810356D00AB53ECE77D
S214000D601A2003B0F0BDC046E50B0000FFFF0000F0
S214000D7070B50400150001601F4A516980235B00AE
S214000D800B43536100221D4B1A611D4B9847AB78ED
S214000D9023711C4B1C6022682B79DB0329880B43CC
S214000DA09BB21380AB78002B13D01720012B0FD1EA
S214000DB013889BB21380EB78002B03D01388802116
S214000DC00B431380A968002220000F4B9847002091
S214000DD070BD138804210B431380EB781720002B7B
S214000DE0F6D10022A9682000074EB047E968012224
S214000DF02000B0470020EBE7000400400010004051
S214000E00650C0000DC2700200D0D0000F8B5DE465E
S214000E1057464E464546E0B52B4B1B689A461E681D
S214000E20DB8E5246928E1A409046B28973891340E2
S214000E301AB2002A08DBFF271F402AD0002401230D
S214000E409946FE339B4614E043465B0507D41F4B8A
S214000E50B3813CBC90469946A246AB46F8BD534685
S214000E601B6B9847F3E75B461D40B5810134082CA1
S214000E70EFD023004D46A5402F42F4D042462241F3
S214000E8049461142EFD002339B0052469B58984782
S214000E90E9E7DA050AD54346DB0503D480235B0081
S214000EA0B381D6E753469B6A9847F7E79B05D0D5AC
S214000EB043469B0503D480239B00B381C9E7534672
S214000EC0DB6A9847F7E7C046DC2700200080FFFF74
S214000ED001680722CB691A42FCD17047F0B5D646A6
S214000EE04F464646C0B58AB007000E00140039606B
S214000EF008009C4B9847052800D12BE105001235C9
S214000F00994AD169012383400B43D36109A9237B06
S214000F100B70EDB22800954B98472800944B9847E5
S214000F20207B0021934B984733681C209B0705D5F0
S214000F300AB01CBC90469946A246F0BD33681738E6
S214000F40DB07F5D4142333603B6898461800854BBE
S214000F5098470500802308AA1370002353700122C7
S214000F6008A98A70CB70E069266A002800D1AEE036
S214000F7008AB1870022308AA5370000CC0B2110008
S214000F807D4B9847002E00D1A6E008AB1E700223CA
S214000F9008AA5370360CF0B21100774B9847A38A14
S214000FA0FB80E38A3B81237E8022002B04D1734B97
S214000FB09B789B07DB0FDA01A16823690B43134379
S214000FC02422A25C002A02D08022D2051343A26A01
S214000FD013432C22A25C002A03D180229204914261
S214000FE002D18022120513432D22A25C002A02D0D1
S214000FF08022120413432E22A25C002A02D08022F2
S214001000D2031343424612681343424613608023BA
S2140010105B0053601235E8B2594B98470790FA23A5
S2140010209B0022685A43914663689A46554DA847E6
S214001030009001914B465800A84702900391208EDD
S214001040A84704900591504F504A514B009801997B
S214001050B84702000B0004980599B8474D4E002289
S2140010604D4BB047049005914846A84702000B0038
S21400107004980599B84702000B00484D009801995E
S214001080A847029A039BB0470022454BA847029AFE
S214001090039B444DA847444B9847050080239B0478
S2140010A0A2689A421ED003004020FF2D00D93FE7D9
S2140010B000240020FF251D40240625430004FF23AE
S2140010C01B04184005434346DD60002030E700213E
S2140010D04046364B98474BE701214046334B9847EE
S2140010E0060052E7FA26B60053465E43009801997A
S2140010F002000B00274CA047009001913000214BC6
S214001100984700222A4BB84702000B000098019926
S214001110244CA0470022224B204CA047224B984745
S214001120041E0CD031000798224B98470238001B4B
S2140011302B00FF2D0CD8FF28BCD94020F8E6710004
S214001140481E079B9C4660441A4B98470138EFE7B9
S2140011504020EDE6044A136A02210B431362182569
S214001160D4E6C046FD480000000400407DE10000D3
S2140011700DE100003D47000079E20000002000413C
S214001180A1E100007904010061F8000095D626E888
S2140011900B2E113ED9E900000000244061FD00003E
S2140011A00000F03FF9EF00008D03010089470000C2
S2140011B00000084065E50000F8B504000768084E22
S2140011C0B04725682000B04783232B752B762B6805
S2140011D0022293432B602000B04701233B60F8BDFA
S2140011E0D10E000003681A7E920707D502221A76EF
S2140011F05B8B9B074120DB17184070475A8B5207C2
S21400120006D55968C02292020A435A601820F4E7AD
S2140012100020F2E730B50268002301240225117E83
S21400122021420BD1117E294206D101339BB201899E
S2140012309942F4D8122002E0002000E0002030BDE1
S21400124010B5046862688023DB0213436360616242
S214001250024B98470123237610BDC04615120000A6
S214001260F0B5DE4657464E464546E0B583B0060026
S214001270894605684C882B681B01DB0F9A464B7A1B
S214001280002B2BD16B68584A13406B604B461B7A79
S214001290002B27D14B461B885B004A46527A9203A6
S2140012A01343012213436B623000504B9847019062
S2140012B05346002B03D04B465B88012B3BD06B6814
S2140012C0494A13406B60019B002B3AD0019803B04B
S2140012D03CBC90469946A246AB46F0BD897A444B44
S2140012E09847CFE74B461B885B004A46527A9203E4
S2140012F013438022120213436B6230003B4B984725
S21400130001906B68384A13406B600028DED13000CD
S214001310384B984701900028D8D14B461B881B0AAB
S214001320782213435B004A46527A920301210A430D
S21400133013436B62B8E76A688023DB0213436B6073
S214001340C1E730002B4B984701900028BED1013CE6
S214001350A4B28046284B9B4615E0012C20D03000D6
S214001360264B984743465F1CBFB22823EB5C4A4691
S21400137052684146535430001C4B9847013CA4B277
S214001380002815D1B8465C4514D06B8B9B0627D534
S214001390F37A002BE3D05346002BDED1002CDED1AF
S2140013A06A688023DB0213436B60013CA4B2EAE761
S2140013B0B8460190B37A002B09D130000F4B9847FE
S2140013C02823EA5C4B465B6841465A547EE7300069
S2140013D00A4B98476A68C0239B0213436B60ECE78E
S2140013E04123019372E7C046FFFFFBFF1512000082
S2140013F041120000E5110000FFFF0000D10E0000C2
S214001400F0B5DE4657464E464546E0B583B0060084
S2140014100F0005684C88324B98477B7A002B1DD10D
S2140014206B68304A13406B603B7A002B1BD03B88BE
S2140014305B007A7A920313438022120213436B6294
S2140014403000294B98470190002813D0019803B02C
S2140014503CBC90469946A246AB46F0BDB97A3000F1
S214001460224B9847DCE73B885B007A7A920313436B
S2140014706B62E5E730001E4B9847031E0190E5D1EE
S214001480A046002420339946154B9B46164B9A4699
S214001490444515D06B8B4A4613421DD03000D847C2
S2140014A07B681A5D2823EA543000D047002806D10E
S2140014B06B8B01345B07EBD51E23019300E0019094
S2140014C0B37A002BC2D03000054B98476A68C02319
S2140014D09B0213436B60B9E741230193B6E7C0460E
S2140014E0D10E0000FFFFFBFF1512000041120000A6
S2140014F0E511000010B501238372C372014B9847B3
S21400150010BDC0466112000010B501238372C3727D
S214001510014B984710BDC04601140000931C9B0069
S2140015201950022A09D0032A0CD0012393401A002E
S214001530037E1343037600207047037E1022134376
S2140015400376F8E7037E202213430376F3E70000D2
S21400155070B58000164BC45823689D7A227E637E41
S21400156013401D40EB0706D4AB070BD4EB0610D494
S214001570AB0615D470BD2000A368984701232268E7
S2140015809372F1E72000E36898470223226893727B
S214001590ECE7200023699847102322689372E7E758
S2140015A0200063699847236820229A72E2E7C046C3
S2140015B0E027002010B50020014B984710BDC0461C
S2140015C05115000010B50120014B984710BDC046CC
S2140015D05115000010B50220014B984710BDC046BB
S2140015E05115000030B585B001AA0B4B32CB32C284
S2140015F0019B98420DD0029B984208D00023039A84
S214001600824202D0180005B030BD023302E001234A
S21400161000E00023DBB2F5E78C400100F0B5C646DB
S21400162000B58AB004000D0016000800AA4B9847C3
S214001630804609AB1B221A705A7002329A7003A9B0
S214001640A64B0C330A0083CB83C283CB83C2002312
S214001650A360E360236163612376637643469A0062
S2140016609F4BD45025603423F35CA376F378082B85
S21400167008D023712B680520DB0708D50AB004BC08
S2140016809046F0BD17204246D207F7D4F1E7EB7A32
S21400169017309B07F2D42B689B07EFD4337C002BC4
S2140016A012D1337F002B1BD143465A0003A9531C8B
S2140016B09B0058584346DB005B58D9B2042923D810
S2140016C08B008849CB589F4602A901238B700022C5
S2140016D0CA70327E0A704B70307D834B9847E0E7C5
S2140016E002A901238B700022CA702432B218127825
S2140016F00A704B701F33F31818787B4B9847D3E764
S2140017007A494B6918434861F378082B00D185E085
S21400171001A933780B7009AB42469F5C3800744BC6
S21400172098473800734B9847F378F2791343B2889A
S2140017301343727A002A02D0802252021343B27AEE
S214001740002A02D0802292021343F27A002A02D0A4
S214001750802252031343327B002A02D08022920357
S214001760134371788901B278D20111431943226874
S2140017701369002BFCD1296022681369002BFCD169
S214001780B3792B73717B4B1E99418900B37B002B79
S21400179001D00123194322681369002BFCD1FF33C3
S2140017A02B71002904D022681369002BFCD16971C3
S2140017B0337A6B7322681369002BFCD12379042BD0
S2140017C059D0082B74D01720002B00D056E7136989
S2140017D0002BFCD1338DAB8222681369002BFCD121
S2140017E0738DAB8322681369002BFCD1B38DEB831A
S2140017F0002043E73D498B691843886184E73B49ED
S214001800CB691843C8617FE738490B6A18430862FA
S2140018107AE7364B596A0843586275E74346013300
S214001820022B00DD74E703ABD11C8900C9580232D5
S2140018309200D358DAB2042A00D969E793002E4AF8
S214001840D3589F46294A53691943516160E7274A8E
S2140018509369194391615BE7244AD3691943D161BF
S21400186056E7224A136A1943116251E71F4B5A6A18
S214001870114359624CE71369002BFCD12833F35C03
S2140018802B7522681369002BFCD12933F35CEB76A9
S21400189022681369002BFCD12A33F35C2B7722686D
S2140018A01369002BFCD12B33F35C6B770020E5E645
S2140018B01369002BFCD1B36A6B6122681369002B95
S2140018C0FCD1F36AEB6122681369002BFCD1336B01
S2140018D02B620020D2E6C046E51500008C400100D1
S2140018E0E02700206440010079E200000004004088
S2140018F07DE100000DE100007840010010B584B0E5
S21400190003AB00221A7001325A709A70DA70274BB5
S2140019101B78834207D0002807D1244B1B78002B66
S21400192023D1224B187004B010BD03AB1B5C204AB9
S214001930D25CFF2A00D1FEE7EFF3108251424A4103
S214001940019272B6BFF35F8F00211A4A1170019C94
S2140019501749CA5C0132CA54002CDED00122154B4E
S2140019601A70BFF35F8F62B6D7E703AAD35C104A3C
S214001970D25C002A00D1FEE7EFF3108251424A41C2
S214001980029272B6BFF35F8F00210A4A1170029C62
S2140019900749CA5C013ACA54002CC2D00122054B42
S2140019A01A70BFF35F8F62B6BBE7C046B005002073
S2140019B094270020C602002043060BD00F230340C6
S2140019C05B00C00918180238830018188000024B04
S2140019D0181870470020FCE760050020F0B5D646D2
S2140019E04F464646C0B589468D796BB2002B26DB3E
S2140019F028005E4B984704000F272F40038A98461E
S214001A004B461B889A46837C5B076AD4E36853443C
S214001A101E00E360A3689E4200D874E0E360A37CE7
S214001A2001229343A3742368002B03D0E1682A00A5
S214001A30002098471CBC90469946A246F0BD280058
S214001A404A4B984704000F272F40038A98464B4678
S214001A505E88C3689C466644C66081688E4225D010
S214001A608D1BADB2424B9D4206D91D004146180063
S214001A70404B98476D1AADB2A27C0023920707D55B
S214001A80414628003C4B984789B24B424B41DBB25B
S214001A905B00A27C02218A431343A37462689219F6
S214001AA02B0039003548364CA047C3E7837C9B079C
S214001AB00BD4837C0122934383740368002BB9D034
S214001AC02A00310000209847B4E7837C0222934323
S214001AD0837442689219002339002848284CA0478E
S214001AE0A8E74368C268944663441E00414680687F
S214001AF0214B98470A007B1E9B012249591830004B
S214001B00214B984782E74A469288524500D086E79E
S214001B109E4200D183E79B1B9DB2154B9D4216D972
S214001B201D0041461800134B98476B1A9BB2984508
S214001B3014D9A37C04221343A3747A1E9201114B7A
S214001B40D218434639000D48104CA04772E741466C
S214001B502800094B98476B1A9BB2E8E7626892190F
S214001B6039000648094CA04764E7C046B91900008A
S214001B70FF1F000045E8000071E600006C2800200A
S214001B806D2B0000EC270020C9090100C12B0000C6
S214001B9010B50522054B1A70054C80212000054B18
S214001BA0984700212000044B984710BD5E05002092
S214001BB06C280020C12A0000E72A000070B5084CF7
S214001BC006212000074DA84704212000A84702212F
S214001BD02000054B98470220044B984770BDC0462E
S214001BE06C28002001260000E1250000FD180000FA
S214001BF070B5144B1B8B9B061DD41249D0221201C4
S214001C00CB6813409342FBD10F4C022120000F4BB0
S214001C109847042120000E4DA8470E4A06212000B2
S214001C200D4B984706212000A84703200B4B9847EA
S214001C300B4B984770BD034980225200CB68134275
S214001C40FCD0E1E7000C00406C28002001260000D4
S214001C50E1250000BD1B0000BD250000FD180000AA
S214001C60B33C000070B582B004001E4B984780233A
S214001C702268937201AD28001B4B984700266E70B1
S214001C8029002000194B984719492000194B9847FE
S214001C90194B022200212000184DA847184B00229D
S214001CA000212000A847174B012200212000A8474A
S214001CB0022200212000144DA84700220021200007
S214001CC0A847012200212000A84721680B890F4A57
S214001CD01A408023DB0013430B810D4B1E7002B0AD
S214001CE070BDC046710500000D2800001D280000CC
S214001CF0EC290020112C00004D1E00001D260000BF
S214001D0051210000511D00006D260000FFF3FFFF6B
S214001D105E05002010B50322074B1A70074C0849D1
S214001D202000084B9847084B9A68002300212000A3
S214001D30064CA04710BDC0465E0500206C2800205B
S214001D40EC290020112C0000D42900206D2B000067
S214001D5010B589794BB2002B06DB0E4B1B78022B95
S214001D600FD0032B11D010BD0A4B1B78012B05D0CA
S214001D70042BF8D10848094B9847F4E7084B9847D6
S214001D80F1E70422034B1A70EDE70348034B98472C
S214001D90E9E7C0465E0500206C280020C12A000046
S214001DA0151D000070B5204B1B88204A9489E41A44
S214001DB0A4B2002C18D11E4A11885B189BB213805F
S214001DC01A4AD2889A4223D01A4B1B78002B1FD16E
S214001DD0164B5B69002B23D09847002820D00022A2
S214001DE0114B1A80114B9C89072C19D90022114BD4
S214001DF01A7008240C4D2B880C4A9268D2182300BF
S214001E0000210D480D4EB0472B88E4182C8070BD7D
S214001E1004220B4B1A700B4907480B4B9847F6E702
S214001E200122044B1A70E5E75A050020D429002049
S214001E305C050020580500206C2800206D2B000053
S214001E405E050020EC290020112C000010B50C00C7
S214001E502C4B1B78002B07D02B4B1B69002B00D07C
S214001E6098470022274B1A702388082B02D0274B4E
S214001E70984710BD244A264B19781170597851702E
S214001E80D878000299780918518058790002197993
S214001E9009189180D97909029B795B18D3801D4B6C
S214001EA09847002816D0184B1B787F2B15D8164B52
S214001EB0DB88002B22D00023174A1380174A138092
S214001EC00122104B1A700823114A00211448154CA1
S214001ED0A047CEE70D4B9847CBE700230E4A13806A
S214001EE00E4A13800222074B1A700823084A002164
S214001EF00B480C4CA0470C4B9847BAE70B4B98473F
S214001F00B7E7C0465E050020D4290020911B0000DC
S214001F10EC290020150600005C0500205A0500206C
S214001F206C280020C12B0000A51D0000151D000018
S214001F3010B5014B984710BDD105000010B5074CF1
S214001F4004212000064B984702212000054B9847A5
S214001F500120054B9847054B984710BD6C2800207C
S214001F6001260000E1250000FD180000B13C00003D
S214001F7010B5040001000A480A4B984720000A4B97
S214001F809847837CDB070AD5837C012293438374BE
S214001F900368002B03D0C16822000120984710BDBB
S214001FA06C280020612A0000B919000070B582B0C4
S214001FB0040001AD28000D4B984720000C4B9847B5
S214001FC02C700023EB700B4E290030000A4B98470C
S214001FD00F21214000223000084B984700222100A4
S214001FE03000074B984702B070BDC0460D28000071
S214001FF0711F00006C2800201D28000045260000E8
S2140020003D270000F0B583B005000F00140001AEB8
S2140020103000364B98473570082C13D8002201AB99
S2140020205A702800324B9847048203213940012910
S21400203038D0022943D0002303293DD1042201AB26
S214002040DA7032E0102C03D8012201AB5A70E8E7B0
S214002050202C03D8022201AB5A70E2E7402C03D8AA
S214002060032201AB5A70DCE7802C03D8042201ABB4
S2140020705A70D6E780235B009C4203D8052201AB4A
S2140020805A70CEE780239B009C4203D8062201AB01
S2140020905A70C6E7174A002394420DD8072201ABB0
S2140020A05A70BEE7022201ABDA7001A91248134B40
S2140020B098470023002806D0180003B0F0BD03227E
S2140020C001ABDA70F1E70F2129400B4C0C4B0022D4
S2140020D020000C4EB0470022290020000A4EB047D0
S2140020E0012229002000B0470123E5E70D28000063
S2140020F0B9190000FF0300006C2800201D2800000E
S214002100DD1900001D2600006D26000010B5010038
S2140021100148024B984710BD6C280020972A000003
S21400212010B504000F2303400020022B00D910BD79
S21400213021000448044B98472000044B9847012090
S214002140F5E7C0466C280020C12A0000711F000079
S21400215070B5344B1B78012B0AD0022B5FD0324B64
S2140021601B69002B00D0984700222E4B1A7070BDBA
S2140021700D882D4B9B892D4A14886219934201DAEB
S2140021801D1BADB2284B986800192A002849294B18
S21400219098476419A4B2254B1C80082D0AD0224B00
S2140021A09C815B69002B02D09847002814D0224BF4
S2140021B09847DCE71C4BDA88204B1B881B199A4291
S2140021C0EDDD194B9B89A3420CD00823184A002149
S2140021D01B481C4CA047CAE70522124B1A701A4B24
S2140021E09847C4E7104B5B69002B0BD09847002834
S2140021F00FD012490D4A0B8810881B180B8000233D
S2140022001380E2E70522074B1A7000200E4B984712
S214002210ADE70522034B1A700B4B9847A7E70B4B0D
S2140022209847A4E75E050020D42900205A05002020
S214002230EC290020C9090100151D00005C050020DE
S2140022406C280020C12B000021210000A51D0000E5
S21400225070B504000F2303400020022B00D970BD88
S2140022602000094B9847050021000848084B98476E
S214002270AB7C0120DB07F2D5AB7C01229343AB7429
S2140022802B6898470120EAE7B91900006C2800205F
S214002290E72A0000F0B587B005000391029201938B
S2140022A00F2606400024022E02D9200007B0F0BDFB
S2140022B0644B9847041E00D0BDE02800624B984748
S2140022C00700EFF310835A425341059372B6BFF3EB
S2140022D05F8F00225D4B1A70059A837CDB0708D55A
S2140022E0002AE2D00122594B1A70BFF35F8F62B604
S2140022F0DBE7837C01210B438374002A05D001228F
S214002300524B1A70BFF35F8F62B6029B7B60019BD5
S214002310BB600023FB600C9B3B600123039A1340C9
S2140023205A00BB7C02218B43134304229343BB74A5
S2140023306BB2002B20DB019B002B6FD09CB2444B72
S2140023409C425AD9398A1C001800424B9847631A97
S2140023509AB23B8A9A4257D2BA7C04210A43BA748C
S214002360721E92013C49521831003C483C4CA04732
S21400237044424441E4B298E7019B002B27D09DB22B
S214002380334B9D4206D9398A1D001800314B9847B9
S2140023906B1A9DB2BB7C9B0707D5398A2800314B48
S2140023A0984789B24C424C41E4B20120204040009C
S2140023B0BC7C02239C430443BC742B00029A31006D
S2140023C02648294CA04744424441E4B26DE7BB7C12
S2140023D09B0705D5BB7C02229343BB740025ECE724
S2140023E0BB7C01229343BB740C9B002B25D02A0098
S2140023F0002100209847012457E7398A2000194B0E
S2140024009847631A9AB2A4E71300029A3100134859
S214002410134CA04744424441E4B246E7BB7C012249
S2140024209343BB740C9B002B09D02A00002100208C
S2140024309847012439E7002437E7012435E70124CB
S21400244033E7C0460D210000B9190000C60200207F
S214002450FF1F000045E80000EC2700206C28002045
S214002460C12B000071E600006D2B0000024B1B68BC
S21400247080221043987270476C280020024B1B681D
S214002480987A4006400E70476C280020014B9860F2
S21400249099817047D429002070B50320164B9847C1
S2140024A0164C2268138901218B431381144A033189
S2140024B02000144EB047144A00212000B047134AAB
S2140024C001212000B047124A02212000B047042113
S2140024D02000104DA84700212000A8470121200019
S2140024E0A84702212000A8470B4A06212000B04733
S2140024F006212000A84770BDFD1800006C280020AB
S2140025003D1F0000BD250000311F0000651C0000B7
S214002510F11B0000E1250000BD1B000070B582B075
S214002520EFF310835A425341009372B6BFF35F8FA6
S21400253000221A4B1A70009C01AD2800184B9847D1
S2140025400323AB70174E2A008221C9053000164BB4
S21400255098473000154B9847154B1B8B9B0615D498
S2140025601349D0221201CB6813409342FBD10120BD
S214002570104B9847104B9847002C05D00122074B6C
S2140025801A70BFF35F8F62B602B070BD0849802232
S2140025905200CB681342FCD0E9E7C046C6020020D2
S2140025A0353300006C28002045330000412C000025
S2140025B0000C0040FD1800009924000010B50B0028
S2140025C02E339B001A50AA2252004900835A034C0D
S2140025D0095B0B438352002010BDC046C440010077
S2140025E04900064BCB5A02689383AB214900425AF6
S2140025F01A4342520268138300207047C440010009
S2140026004900054BCA5AAB214900435A93434352EB
S21400261003689A8200207047C440010010B58C0001
S214002620A4183434A4000419636040185930FF30ED
S214002630037803498A5C13430370002010BDC0462C
S214002640D440010010B58B009B1834339B00C31890
S21400265000245C6040185930FF30034B9A5C0378C6
S21400266093430370002010BDD440010070B50F23C3
S2140026700B40C4186134FF3425782F4EB65C3543C2
S2140026802570002A29D1002B12D103250A24FF34F5
S21400269006683555032A09D149B2002944DB026889
S2140026A05B01D3180A33FF3320221A70002070BD56
S2140026B04CB2002C08DB5C010568AC4664440A3466
S2140026C0FF3401252570E5E75C010568AC466444E7
S2140026D00A34FF3402252570DCE7012A1AD1002BC4
S2140026E005D102680C210A23FF33D154DEE749B234
S2140026F0002907DB02685B01D3180A33FF33042284
S2140027001A70D3E702685B01D3180A33FF33082236
S2140027101A70CBE7022ABDD102685B01D3180A33D0
S214002720FF3310221A70C1E702685B01D3180A3320
S214002730FF3340221A70B9E7D440010070B50F236A
S2140027400B40C4186134FF342F4DAE5C2578B5437A
S2140027502570002A29D1002B12D103258424640079
S21400276006683555032A09D149B2002944DB0268B8
S2140027705B01D3180933FF3320221A70002070BD86
S2140027804CB2002C08DB5C010568AC466444093496
S214002790FF3401252570E5E75C010568AC46644416
S2140027A00934FF3402252570DCE7012A1AD1002BF4
S2140027B005D102680C210933FF33D154DEE749B254
S2140027C0002907DB02685B01D3180933FF330422B4
S2140027D01A70D3E702685B01D3180933FF33082267
S2140027E01A70CBE7022ABDD102685B01D318093301
S2140027F0FF3310221A70C1E702685B01D318093351
S214002800FF3340221A70B9E7D4400100002303705A
S214002810437083700133C37070470000F0B50C78C6
S2140028200F23234064B2CA78042A70D89200894DD8
S214002830AA589746026808335B0100219954002283
S21400284082E05C0102689446644480225200A55CE3
S214002850E43A6D0778D1E432A65C7025E43A2E425D
S21400286072D15F3DE432A5541A0008325201046862
S214002870A4182F35657100688218802010718A7838
S214002880002A1FD05801744A121854688020000687
S2140028900443546054692043506107254C785A011C
S2140028A06D4B9B1858682C4024076C4E30402043D4
S2140028B0586049785A692940090732400A435A61E4
S2140028C0002241E05801644A12185068400040084F
S2140028D050605069400040085061DEE7002C35DB50
S2140028E05D0102689446654480225200AE5CE43A7C
S2140028F0760729D180267600AA5D02273A43AA5594
S2140029000268180008304001121840205071E20F8B
S2140029104F785D00AD182D014F4E75196868072475
S2140029203C4024074D4E304020436860897800299B
S21400293000D088E05B009B181B01474AD3185A68F2
S214002940520052085A6000221000F0BD5D01026875
S2140029509446654480225200AF5C7026E43A3742C3
S214002960F2D19036AA5D20273A43AA55026818008D
S21400297008304001121880201071C8E7002C17DBC1
S2140029805D0102689446654480225200AE5CE43ADB
S2140029907607D9D180267600AA5D03273A43AA5542
S2140029A00268180008304001121840205071AEE747
S2140029B05D0102689446654480225200AF5C702632
S2140029C0E43A3742C0D19036AA5D30273A43AA553A
S2140029D0026818000830400112188020107196E72F
S2140029E0002C17DB5D010268944665448022520085
S2140029F0AE5CE43A7607A7D180267600AA5D042767
S214002A003A43AA55026818000830400112184020C0
S214002A1050717CE75D01026894466544802252004E
S214002A20AF5C7026E43A374200D08DE79036AA5D58
S214002A3040273A43AA550268180008304001121889
S214002A408020107163E7696880231B060B436B6068
S214002A50002279E7B0400100F4290020FFFFFF8F35
S214002A600F230B4049B200290ADB08335B010268DA
S214002A70D218402151710268D3180122DA717047CA
S214002A8008335B010268D218802111710268D318DE
S214002A900222DA71F3E70F230B4049B2002907DB65
S214002AA0026808335B01D3189879C006C00F7047D8
S214002AB0026808335B01D31898798006C00FF6E7E2
S214002AC00F230B4049B2002906DB026808335B017E
S214002AD0D31810225A717047026808335B01D31866
S214002AE020225A71F7E730B50F230B4049B2002970
S214002AF01DDB59010268521883246400145DE40645
S214002B0014D5102582246400155502685218082131
S214002B10FF31515C890609D5E43C0821FF31545445
S214002B20026808335B01D31801221A7130BD5901BF
S214002B300268521883246400145DA406F6D5202586
S214002B40822464001555026852180821FF31515C32
S214002B504906EBD5C43C0821FF31545402680833BB
S214002B605B01D31802221A71E0E7000030B50C00B2
S214002B70083464010568645D6406640F1C25002C37
S214002B8001D1280030BD4C010B4D2D192C002A61B7
S214002B906A690A4D2A40626162699B049B0C920B2B
S214002BA0920313436361036808314901591880236F
S214002BB04B710025E5E7C046F4290020FF3F00F0F2
S214002BC030B50C00083464010568645D64071C2594
S214002BD0002C01D1280030BD0B4C4D012A51621942
S214002BE054689B041B09094D2C40234353605368CB
S214002BF09B0B9B0353600368083149015918402317
S214002C000B710025E6E7C046F4290020FF3F00F0E0
S214002C10094B19605A6809491140802292020A43FA
S214002C205A605A68920B92035A60026840218223C7
S214002C305B00D15400207047F4290020FF3F00F0CD
S214002C400268137802210B43137002689378022BF4
S214002C50FCD07047F0B5DE4657464E464546E0B5D2
S214002C6083B0C44B1F683D682B78DB0914D12E8CCB
S214002C70B6B2002E00D02DE2AE8BB6B2AB235B0010
S214002C80FB5AAA225200BD5A1D4035400024BA4FB6
S214002C90B84B9946984608E22B8C9BB2002B00D185
S214002CA03DE1288C80B2B54B984704001F2800D918
S214002CB035E1030008335B01ED18ED79EDB2AB07A3
S214002CC041D0AF4A01238340116899431160030045
S214002CD008335B013A68944663440322DA713B1872
S214002CE0AE331B78DB072ED5A64B18703A68030068
S214002CF008335B019B5C9B079B0F012B00D194E084
S214002D004201A14B9B185A681201920C90B29D4941
S214002D104A805A689204920C8A805A689B490A40F4
S214002D205A60002807D16201974B9B185B689B048A
S214002D309B0C944A53808F4B1868A31C1B01C31826
S214002D405B68904998476B071FD58A4B18680268DE
S214002D50230008335B019B5C9B065B0F022B75D040
S214002D60230008335B019B5C9B065B0F032B00D1A3
S214002D709EE06201844B9B1800229A720368220030
S214002D80083252019B180422DA712B0715D57C4AAB
S214002D900123A340116899431160764B18682300FD
S214002DA008335B010268944663440822DA7103190B
S214002DB0AE331B789B0700D594E0EB0615D5704A1A
S214002DC00123A3401168994311606A4B18682300D9
S214002DD008335B010268944663441022DA710319D3
S214002DE0AE331B785B0700D58AE0AB0600D42FE134
S214002DF0634A0123A3401168994311605D4B18682C
S214002E00230008335B010268944663442022DA718B
S214002E100319AE331B781B0700D419E159490C700F
S214002E2024010419236B984712E14201564B9B1864
S214002E305A689204920C53494A805A681201920CBE
S214002E408A805A68920B92035A6074E7230008330C
S214002E505B019B5C9B079B0F012B81D161014A4B59
S214002E605B1808339B78DB0700D479E7444A0123D4
S214002E70A3401168994311606201434B9B180022DE
S214002E809A72230008335B01026894466344042266
S214002E90DA710319AE331B789B0700D475E73949FE
S214002EA00C7010234B702301C3189B6A98476CE77D
S214002EB0230008335B019B5C9B079B0F012B00D014
S214002EC057E76201304B9B1800229A7223000833A2
S214002ED05B010268D2180421D1710268D31810224F
S214002EE05A7152E727490C706201274B9B18DB8901
S214002EF01F2213404B702301C3189B6A98475CE758
S214002F0020490C706201204B9B185B681B019B0CD0
S214002F104B802301C318DB6A0021984765E7AC8B1A
S214002F20A4B2630738D50423AB83154B1D68012371
S214002F300120102602E00133082B29D002009A4017
S214002F401542F8D039681A0008325201525C9206CF
S214002F50520F032AEFD11A0008325201525C920730
S214002F60920F012AE7D11A000832520189180E7111
S214002F70E1E7C046B4050020C440010009E90000AE
S214002F80C4050020C8050020F4290020FF3F00F0FB
S214002F909D33FB5CDB0762D423070BD50022AF4BC7
S214002FA01A60AF4B18680823026893839D33C35C8E
S214002FB09B0758D4630608D5A94B186840230268B7
S214002FC093836533C35CDB0650D4A30608D5A44BB5
S214002FD018682023026893838533C35C1B0748D494
S214002FE0E30608D59E4B1868102302689383953332
S214002FF0C35C5B0740D423060BD50022974B1A60B0
S214003000974B18688023026893832533C35C9B061E
S21400301035D4E3050CD50022904B1A60904B186807
S21400302080235B00026893835B3BC35C5B0629D40A
S214003030A3050DD50022894B1A60894B186880239A
S2140030409B00026893835C3BFF3BC35C7F2B1CD8D2
S21400305003B03CBC90469946A246AB46F0BD7B68A2
S2140030603800984798E783689847A3E743699847E6
S214003070ABE703699847B3E7C3689847BBE783693C
S2140030809847C6E7C3699847D2E7036A9847DFE7D9
S21400309023002E339B00424612689B5871494246D5
S2140030A0106898470134072CD2D06300DB5B3342AC
S2140030B003D04A461268126893832B42F2D0062C3D
S2140030C0E6D1694B1B891B09802252001340654AD2
S2140030D01360DDE73C005934FF3400230122944698
S2140030E05F329146503A92460D3A9346B8462F00C4
S2140030F0C3E02A003D00474690465B01ED180823D2
S214003100FF33EB5C5B0615D540220823FF33EA54F9
S214003110883BFF3B42461343544A937160230B425D
S21400312096D0019B1B01FB18E0331B684F49380003
S21400313098478DE70823FF33EB5C9B06EED52022ED
S2140031400823FF33EA54494B42469A71E6E73D00AE
S2140031504746019A130008335B01ED181023EB7104
S214003160BB186133FF331B78DB0600D470E7100012
S21400317052013D4B9B185B689B049B0C3B490B80A4
S2140031800301FB18DC331B684046984760E72A00BB
S2140031903D00474690465B01ED180823FF33EB5C85
S2140031A09B071ED502220823FF33EA542F48883B8C
S2140031B0FF3B424613438371019B5A012A4B9B18DF
S2140031C010335B689B049B0C43808B0700D13FE762
S2140031D0019B0D331B01FB185B6824493800984798
S2140031E036E70823FF33EB5CDB07EED50122082326
S2140031F0FF33EA541D4843468371019B5B011A4A1C
S214003200D21853689B049B0C038053681B019B0CCD
S2140032108380DAE70822FF329A5C520779D50420C9
S2140032200822FF329854019842010F4B9B189B7A54
S2140032309B0705D50C4B9B189A7A022082439A72FC
S2140032400A4B42469A71019B08335B013A689446E2
S2140032506344DB79DB075CD5FAE6C046C40500208C
S214003260B4050020B8050020F4290020BC05002085
S21400327001330134082B00D1EAE6DDB201933200B7
S2140032801A4161461142F3D01A0008325201BA18A8
S214003290D279D2B2217A11402078014048461042B5
S2140032A000D026E75046104200D050E7584610425D
S2140032B000D06CE70C201042DAD02A003D004746CA
S2140032C090465B01EB180822FF329A5C1207A1D5E4
S2140032D004380822FF32985401984201134B9B1879
S2140032E09B7E9B0705D5114B9B189A7E0220824336
S2140032F09A7680235B42424613430D4A9371019BA4
S21400330008335B013A6894466344DB799B0700D533
S2140033109EE60C230B4200D19AE6019B1B01FB188C
S214003320D8331B6802493800984791E6F4290020F4
S214003330BC05002000230370013343700322827013
S214003340C3707047F0B5CE46474680B583B00400DC
S2140033500D0016000023674A1360674A106021605C
S2140033606648826901210A43826101AF7B70B970A9
S214003370FB70063399463B7039001820604B984620
S21400338098474B463B7039001920C047B3786A46C9
S2140033901370694604205B4B984704205A4B9847A5
S2140033A02B78012213432B70AB78DB07FCD4574BEA
S2140033B01B689B03DB0E1F2B00D18FE02A8D9B0121
S2140033C053490A4013432B85504B1B685B02DB0EA8
S2140033D01F2B00D184E02A8D1F218A4313432B859F
S2140033E04A4B1B689B015B0F072B00D17AE02A8DA6
S2140033F01B0348490A4013432B8532782978D201AB
S2140034007F230B4013432B7071782B7801220A40E0
S214003410920004218B4313432B703F4B6B62F3786F
S214003420012B61D0002B06D1226813890C218B4317
S21400343004210B4313818022520000213648374B6B
S2140034409847231D21002431002204C38B42FCD15F
S2140034502100A43100221A605A609A60DA601033A4
S2140034608B42F8D10023A422A3540132A354230094
S214003470A6332100AE3100221A701A720133994227
S214003480FAD12300B8332100D431002204C38B4282
S214003490FCD121005531FF3100221A605A609A6033
S2140034A0DA6010338B42F8D10023AA225200A352CE
S2140034B00232A35223005933FF336134FF34002213
S2140034C01A701A720133A342FAD14022144B1A60C2
S2140034D0002003B00CBC90469946F0BD1A3B6DE741
S2140034E0023B78E7043B82E72268138908318B4366
S2140034F01381A0E7C4050020B405002000040040A6
S21400350079E200007DE100000DE100001C60800013
S2140035103FF8FFFFFF8FFFFFF4290020FF0901009F
S21400352000E100E030B583B001AC00232370A37047
S2140035300233637021000B20044DA84721002A2087
S214003540A84721002B20A84703B030BD79D900003A
S21400355010B50248024B9847002010BDD005002049
S214003560D15F000010B582B00400184B1B68002B1A
S21400357001D0174B98472000164B9847134B1860FE
S21400358000281CD04368002B1BD00368002B1AD0E1
S21400359062780020032A01D002B010BD0133023A3F
S2140035A00092123200210C4CA0470028F4D1074BA1
S2140035B01B681A68537807218B435370ECE7E120A9
S2140035C0EAE7E120E8E7E120E6E7C046D00500208C
S2140035D0513500007D5F0000D9630000014B18687C
S2140035E07047C046D005002010B5044B1B68E1208C
S2140035F0002B02D05868024B984710BDD00500201B
S2140036001160000010B5044B1B68E120002B02D0AF
S2140036105868024B984710BDD0050020196000007E
S21400362010B5044B1B68E120002B02D05868024BF3
S214003630984710BDD00500203160000010B5014B42
S214003640984710BD0536000010B5029C002C08D027
S2140036500324204007D002280DD0012803D0E22002
S21400366012E0E22010E0D200072003401A43029B3B
S2140036701A80002008E0C900072003400B4312020E
S2140036801A43029B1A80002010BD0000002A3ED07C
S214003690204B1B685B685B685B78002B13D10128A6
S2140036A009D0002803D0022809D0E22030E05823B1
S2140036B0136000202CE040231360002028E0202325
S2140036C01360002024E0012809D0002803D0022837
S2140036D009D0E2201CE080231360002018E040237D
S2140036E01360002014E0072908D908290AD0E22030
S2140036F00F290DD848231360002009E02423136007
S214003700002005E0D0235B001360002000E0E220EC
S2140037107047C046D0050020F8B506001C4B1B6855
S2140037201D685F68807829001A4B9847041E01D0F0
S2140037302000F8BD184B9847041E02D0174B984738
S214003740F6E7727831003800154B9847041EF5D11D
S2140037506888144B9847B51D32008A322900380015
S214003760114B9847041EE9D18A23F45A032C04D837
S21400377060426041E6300400E0E728000B4B9847C3
S214003780041EDBD128000A4B98470400D6E7C04643
S214003790D0050020A55C0000E93500003D3600009D
S2140037A001600000956E000009600000D15E000018
S2140037B00D5F0000192810D903001A3B192B10D9E9
S2140037C00300343B092B0FD93E2810D03F2810D0D9
S2140037D0FF23402803D18B7801E04130C3B21800A4
S2140037E070474730C3B2FAE70438C3B2F7E70B783E
S2140037F0F5E74B78F3E70000F0B5DE4657464E4651
S2140038004546E0B585B005008A46161E02932DD0C3
S21400381000282BD0002B29D00E9B002B26D088000A
S2140038200321694B9847040003215046674B98478D
S21400383064180E9BD978002904D02000624B984764
S21400384040002418029B1B6801939C421AD8002350
S214003850029A13605346002B00D1A0E00023039386
S214003860002498463300464698463FE0E2215848F2
S214003870584B9847E22005B03CBC90469946A24675
S214003880AB46F0BDE2215448524B9847E220F2E79F
S214003890E71CC144CB46C0B20E99504B9946984798
S2140038A05B461870474404340E994020C847387069
S2140038B055E05F464744C0B20E99484B984738706B
S2140038C0E71CA31C434499460E994020434B984757
S2140038D04B461870474404340E9940203F4B984797
S2140038E038703CE003360335B24553D90195621C67
S2140038F0934642461719287880080E99374A90470B
S21400390038702878000130221040731C9A45D0D9B0
S214003910A21C91465F4647446B781B0918430E99D4
S2140039202E4A90473870687880003C221040B31CBE
S2140039309A45ADD9E71CC144019B9B789B09184367
S2140039400E99264A90474A46107047440434019B15
S2140039509B783F2018400E99204B984738700E9B56
S214003960D9780029BED0039FE01B184B9847002942
S214003970B8D143461B19013B1B78002BB2D0631C01
S2140039800D2241460A55033ACA5402343B0002331C
S2140039900393A7E74646013C1149012209E00124AA
S2140039A06442F9E70800D840024205D0013C002CEA
S2140039B002D0335D0D2BF5D9013400233355029B1D
S2140039C01C60002057E7C04665E5000071E6000071
S2140039D010410100610B0100D8400100B53700001E
S2140039E00124000010B582B0024C0094024CA0479F
S2140039F002B010BD10010020F9370000F0B5DE4619
S214003A0057464E464546E0B583B0009000241B4B13
S214003A109B461B4B99461B4F17E021000098C84752
S214003A20650000210190B847174EA3009A46174B31
S214003A30984698475346985301210198B847013550
S214003A406D00C047A8530134E4B20098D8478442BA
S214003A50E3D36400E4B20D2C08D80B49012252428D
S214003A6063005A520234E4B20D2CF9D903B03CBCC0
S214003A7090469946A246AB46F0BDC046618B000014
S214003A80C58B0000098C0000180100209DE900008D
S214003A9070B505000449054CA047054B98470549F5
S214003AA02800A04770BDC0463C410100F58B0000D1
S214003AB0A13B0000484101000A4B1A880A4BD31864
S214003AC00A499BB28B4208D8FA239B009C46624464
S214003AD0044B1A80034B18887047054A014B1A801E
S214003AE0F8E7C046D405002040A2FFFF701700008C
S214003AF0C05D000010B5074B1C88074B19001C3131
S214003B0002E004338B4204D01A88A242F9D25888C5
S214003B10F7E710BDD405002018010020704700000C
S214003B20F0B5C64600B506000F009846022901D833
S214003B300C37013E6E24FF347443164B9C46624499
S214003B40A418B0082418144DC82149003000A8470E
S214003B5024183801C01B4000241864213000A847F0
S214003B60241A01377800C0190521A84724180B48E5
S214003B704443069B1801C01A8000079B9C4660447D
S214003B80E1231B0146465E438019001904BC90469B
S214003B90F0BDC0463705F5FF65E500008051010021
S214003BA010B5054B1B780020002B00D110BD034834
S214003BB0034B9847FAE7C046DC050020742C00202B
S214003BC0E10C000010B582B0059C0194049C0094A2
S214003BD0054CA04701000548054B98470122054BB8
S214003BE01A7002B010BDC046213B0000742C0020A5
S214003BF09D0C0000DC05002010B5014B984710BD59
S214003C0065050000F0B5DE4657464E464546E0B52B
S214003C1093B001900E00002834D000293BD0052731
S214003C20002398461D4B9B461D4B9A461D4B9946B6
S214003C3017E0A4B24022002102A8D847E2B2019BB6
S214003C404344190002A8D04702A8C847051E0DD154
S214003C50002F18D03220144B9847013FFFB2002E99
S214003C6011D0341C402EE4D94024E2E7FF231C4048
S214003C704346E3189BB29846361BB6B232200A4B30
S214003C809847ECE70025280013B03CBC90469946C0
S214003C90A246AB46F0BD0025F5E7C046FF09010089
S214003CA0C90901003102000015A00000012070477C
S214003CB07047704770B50500124B98472978124A2E
S214003CC01388C154138801339BB213802A780A2ABA
S214003CD010D06A1C40350C4914780B88C4540B88E5
S214003CE001339BB20B8014780A2C03D00132AA420F
S214003CF0F2D105E00022C254044A1368013313606F
S214003D0070BDC046C9490000DE050020F42A002028
S214003D107047704710B52C280FD0322807D00928D6
S214003D2007D02A2807D004231B2807D010BD01235C
S214003D3004E0022302E0032300E00023DB00044A41
S214003D40D3185B68002BF1D008009847EEE7C04612
S214003D50D84101007047704770B504000D00194B3C
S214003D60984704282DD9421EA21869790F230B40C4
S214003D7019003031092B01DD373319001170821E0E
S214003D80A2186B791B0919003031092B01DD373376
S214003D9019001170021FA21829790F230B40190071
S214003DA03031092B01DD373319001170053824181E
S214003DB02B791B091A003032092B01DD37331A0024
S214003DC0227070BD89A4000010B582B004000D48B2
S214003DD00D4B98476323E35C002B04D00B480A4B3B
S214003DE0984702B010BD2000094B984723002133A6
S214003DF06222A25CC1B2FF2000902000054CA047C2
S214003E00EFE7C046CC4201007D0C0100F442010001
S214003E10A70F0100E1B6000006291AD004D9072929
S214003E2035D0092915D070470529FCD1002AFAD0CB
S214003E300123D356002B06D0214B06221A802732A8
S214003E40FF329A60EFE71E4B04221A8000229A6027
S214003E50E9E7002AE7D00421535E002B08DBD3886D
S214003E60002BE0D1164B04221A8000229A60DAE773
S214003E700D3306D0124B06221A802732FF329A6084
S214003E80D1E70F4B05221A8000229A60CBE7002369
S214003E90D35E002B0CDD0B4A09498A58934207DC97
S214003EA09A42C0D1064B04221A8000229A60BAE7D2
S214003EB0034B06221A802732FF329A60B3E7C046C9
S214003EC0E0050020F4050000002906D1064B062276
S214003ED01A802732FF329A607047034BD96004225B
S214003EE01A8000229A60F7E7E0050020054B9B68E1
S214003EF0002B00D070470633038096225200014BF9
S214003F009A60F7E7E005002010B50400064B9B68B2
S214003F10002B00D010BD0548054B98470223238090
S214003F200022014B9A60F5E7E005002054430100AB
S214003F307D0C010010B50400084B9847002806D0F9
S214003F400623238096225200054B9A6010BD032359
S214003F5023806422024B9A60F8E7C04631B4000022
S214003F60E005002010B504000B480C4B98470028CD
S214003F700AD13F200A4B9847002809D10223238004
S214003F800022084B9A6002E00748084B984710BD8D
S214003F900748064B9847FAE7133D000009AE0000B5
S214003FA0E5AD0000E0050020E44401007D0C0100C2
S214003FB0FC44010010B582B0C378427801780079DD
S214003FC000900548054CA047054B04221A800022A5
S214003FD09A6002B010BDC0469C420100610B010011
S214003FE0E005002030B585B00400C37882780188EB
S214003FF08079029060790190207900901048114DE8
S214004000A8472388002B05D0A378002B02D0E3789E
S214004010002B06D10C4B04221A8000229A6005B0B1
S21400402030BD0A4B98470028F4D12379E278A1786E
S2140040302088A579019564790094054CA047E9E7A6
S21400404010430100610B0100E0050020A13B0000C9
S214004050C53B000010B50378012B0DD0002B19D0FE
S21400406041781548154B984700210220144B984775
S2140040700220144B984710BD0120134B9847134855
S214004080134B9847002103200D4B984702200D4BF9
S2140040909847F0E70F480E4B984700210220084B40
S2140040A098470220074B98470B4B06221A80273268
S2140040B0FF329A60DFE7C0466C420100610B0100E8
S2140040C03972000069730000C1B8000000420100A8
S2140040D07D0C010034420100E0050020F0B595B0EB
S2140040E00400002103204D4B984702204C4B984774
S2140040F04C4B9847002803D04B4B9B68002B01D0B5
S21400410015B0F0BD494B9847182200210EA8484B21
S2140041109847484B0E930EA8474B9847002806D062
S2140041204648474B984764223F4B9A60E8E72F255E
S2140041306D4429000CA8434B98472B78002B1FD0C2
S214004140414E3000414B9847414D31002800414BCD
S214004150984729004048414B9847414B1B6A5B05EE
S21400416012D4404B984740494048414B984701A8D5
S214004170404B9847002837D03F48314B9847BFE719
S21400418031483E4B9847DBE73D482D4B984700218A
S2140041900520224B98470220214B9847394E2A4942
S2140041A030002C4FB847384D27492800B847300014
S2140041B0364B9847C1B23000354B9847C022412352
S2140041C0EA54183A0133EA54413B653AAB5401329B
S2140041D0AB54433A2F4928002F4B98472A002F49C3
S2140041E02F481E4B9847BCE701AD01992D481B4E42
S2140041F0B047AB796A7929792B48B0476B7A2A7A27
S214004200E9792A48B0470423052213212848B047F5
S214004210012323800022044B9A6071E73972000064
S21400422069730000A5590000E0050020A9A0000061
S21400423079A40000153D0000F1B200006C430100B7
S2140042407D0C01002DB70000A80100205DB700001E
S21400425074020020593D000084430100610B0100F8
S2140042608028004031D20000C93E0000193E000000
S21400427075D20000C1B70000B8440100FDB60000CA
S2140042809C43010088010020B001002089A40000A2
S21400429089B7000098010020EDB70000B843010080
S2140042A0C843010014440100344401005C4401008A
S2140042B090440100034B9B68002B02D0013B014A4F
S2140042C093607047E0050020024B1888063843428A
S2140042D058417047E005002070B5194B5B88002BED
S2140042E025D1174A174B53600721518000211180B2
S2140042F01800072500241B68A3420FD002000C32CA
S214004300002301339BB2AB420DD210000C321100D9
S2140043100C390968A142F4D1002804D08368002B28
S21400432001D0074898470020074B984770BD044BBC
S21400433058685D881C880368A342DFD1ECE7C04656
S214004340E00500203401002025B4000010B5064B1F
S2140043501B88042B00D010BD044B9847024B032249
S2140043601A8061329A60F6E7E0050020A1B80000E6
S214004370F0B589B00E00344B1B88042B5AD10022AE
S214004380314BDA60314B9847002843D02E4B06223B
S2140043901A802732FF329A602D4D2B4CA84723886F
S2140043A0032BFBD0042B48D1012201210220294BEC
S2140043B09847051E44DB04AC02232380224BDB68AF
S2140043C005933302244A1340B6B2360A1E4366806B
S2140043D0012303930333009303AB032202211F4EF2
S2140043E0B0471022210028001D4B9847061E17D103
S2140043F0154B03221A8061329A60154F1C00B8478D
S2140044002388032BFBD0042B0ED10F4B1D743000DA
S21400441009B0F0BD0C4B03221A8061329A60BBE7EC
S2140044202800104B9847F2E728000E4B98470126C5
S2140044307642ECE701267642E9E701267642E6E791
S21400444001267642E3E7C046E005002065D6000078
S214004450D942000089D2000000FFFF00A1D600006C
S2140044600DD40000C9D50000F0B583B001900C0053
S2140044700092314B1B88042B5BD1BE23DB002E4AF7
S214004480D1582E4B5B1AA3420DD31500113151188B
S21400449022002B4B9847BE22D200AB581B19AB50BC
S2140044A0200003B0F0BD244D0022BE23DB00EA50FE
S2140044B02F001137214E320000213800214B98473B
S2140044C010202856009B320039001F4FB84700289E
S2140044D0E7D1009D6435184F03233B8064212800F4
S2140044E01A4B9847B860002D03D0002801D101224E
S2140044F0BA60174F104DB8472B88032BFBD0042B00
S2140045000AD0062B02D101204042CAE70A4B0422F9
S2140045101A8000229A60F6E7074D29001131220022
S2140045200198074B9847BE22D200AB581B19AB50D8
S214004530B6E701204042B4E7E0050020DC050000B5
S214004540C9090100FF09010035D5000065E5000036
S214004550D9420000F8B505000E00164B1B88042B48
S21400456025D18AB2134C1020205600232900124D64
S214004570A8470500114BE650032323806133A36050
S2140045800F4F0C4CB8472388032BFBD0042B0AD0C4
S214004590062B02D10120404208E0064B04221A8076
S2140045A000229A60F6E7281E00D13000F8BD0120F0
S2140045B04042FBE7E00500209DD40000F405000023
S2140045C0D9420000F0B5DE4657464E464546E0B5B1
S2140045D087B08046049116001F00002200230021A9
S2140045E08B463F2401202100009601975C460394E9
S2140045F04446059413E02024641A0500E540A846C6
S21400460014E0009C019D121BAB415C464D462C43BA
S214004610A346039C45462C430394013925D3202406
S21400462064420C19E7D40500A540A84604008C4057
S214004630A14692185B4114001D00059E4F463E4061
S214004640B446049E47463E40B246664657463E43FC
S21400465003D00600264332002B00009C019D9D429D
S214004660DBD8CED19442D8D8CBE7039B5846190066
S21400467007B03CBC90469946A246AB46F0BD10B586
S214004680490840230024814202D2180010BD1C00B5
S214004690091A631C9BB28842F9D94023FF2CF4D830
S2140046A014800023F1E70000F0B583B00F00160079
S2140046B008AA117804004C434022BC4202D91000DC
S2140046C003B0F0BD002B14D1020008000021194CE5
S2140046D0A04701003A0000230020174CA047002204
S2140046E00123121A8B41120C1B041A43328000223B
S2140046F0E5E70022012BF9D10A00002300210D4C2A
S214004700A04702000B0000920193380000210A4CDB
S214004710A047050080239B0140229842CFD8790FFE
S214004720F800009A019BA047EA00821AD2B2520310
S2140047302A43DBE749E90000C545000010B582B012
S21400474004000E4B1B78002B07D0002905D10B4B1D
S2140047505B78834210D01D200CE001A90C7011205C
S214004760074B98471120074B9847044B5C70012273
S2140047701A70002002B010BD0020FBE7D80B002006
S2140047807DE100000DE10000404B984232D00AD98E
S2140047903F4B98424ED03F4B98425BD03E4B9842A0
S2140047A038D0002070478423DB0598420CD03B4B62
S2140047B09842F6D1012917D000295DD0022915D0DC
S2140047C0032915D00020EDE7012907D0002951D094
S2140047D0022905D0032905D00020E3E73048E1E7A9
S2140047E03048DFE73048DDE73048DBE73048D9E7D8
S2140047F03048D7E7012907D000293FD0022905D045
S214004800032905D00020CDE72B48CBE72B48C9E786
S2140048102B48C7E7012907D0002931D0022905D047
S214004820032905D00020BDE72648BBE72648B9E7A0
S2140048302648B7E7012907D0002923D0022905D04A
S214004840032905D00020ADE72148ABE72148A9E7BA
S2140048502148A7E7012907D0002915D0022905D04D
S214004860032905D000209DE71C489BE71C4899E7D4
S2140048701C4897E71C4895E7032093E71B4891E7F9
S2140048801B488FE71B488DE71B488BE70008004254
S2140048900010004200040043000C004200040042E6
S2140048A003000500030006000300070003000100E4
S2140048B003001E0003001F000300090003000A0097
S2140048C003000B0003001100030012000300130096
S2140048D003000D0003000E0003000F000300170086
S2140048E0030018000300190003000400030008007A
S2140048F00300100003000C000300160030B587B05C
S2140049000B4B6A4632CB32C232CB32C2009B83425A
S2140049100BD001239A0069465258824206D00133D2
S214004920062BF7D1002007B030BD0023D8B2FAE737
S21400493024450100F0B5C64600B50C009046002898
S2140049400FD1002A11DD8F18094E0A4D306821005C
S2140049502B6898470134BC42F8D1404604BC9046C8
S214004960F0BD01235B429846F7E78046F5E7C04670
S214004970002B0020F82A0020F0B5C64600B50E0031
S21400498015000138022810D8002A11D000240C4B3C
S21400499098460C4F43461868315D3B689847002898
S2140049A008DB0134A542F5D106E00124644203E0A9
S2140049B0140001E001246442200004BC9046F0BDCF
S2140049C0002B0020FC2A002000487047E40B002043
S2140049D0024B1868431E9841C0B27047DC0B00209B
S2140049E0034B1B68002B02D0013B014A1360704743
S2140049F0DC0B00200F23034018003730092B00D9AA
S214004A00704730331800FBE702003038C0B2092880
S214004A100DD91300413B052B07D900201300613B3D
S214004A20052B04D8573AD0B201E0373AD0B27047D7
S214004A30F0B5D6464F464646C0B582460F0001281A
S214004A401DD9002600250F4B9946BB199846785D60
S214004A50C8470001C4B243461C707B195878C84743
S214004A600136B6B2044343461C700235ADB2AA45C1
S214004A70EBD830001CBC90469946A246F0BD0026F6
S214004A80F7E7C046094A0000F0B583B02F48304B20
S214004A909847051E02D0280003B0F0BD01A82D4B94
S214004AA09847002815D0B022284B1A7101A8294B28
S214004AB09847B224254F274E00280AD03C7101A8FB
S214004AC0B0470234E4B2C82CF6D1002801D0050065
S214004AD0E1E7214B1B78214AD90050181B4C24795A
S214004AE084700220885401AA9278502A0AD0602A3C
S214004AF01DD0DB00194AD3180A225A70093A134B04
S214004B005A7007E0DB00154AD3180B225A70093A90
S214004B100E4B5A70104E3478E3001048C01804301C
S214004B20042201A90E4B984701343470B3E7DB002A
S214004B300A4AD3180C225A70044803234370044BC5
S214004B4098470028E6D00500A5E7C0468402002066
S214004B5065350000E5610000E00B0020042B002016
S214004B60C909010010B50A4C002323700822002151
S214004B700848094B9847094B9847030022780020BD
S214004B80002A03D0002B01D1024B187810BDC04676
S214004B90E00B0020042B0020FF090100894A0000DA
S214004BA010B584784378472B07D89B003C48C358F9
S214004BB09F4601230B7003331380002010BD022391
S214004BC00B7005331380F8E703230B700133138053
S214004BD0F3E704230B703F331380EEE705230B70D7
S214004BE0013B1380E9E706230B70082C02D04533FF
S214004BF01380E2E70423FBE707230B701C331380C4
S214004C00DBE708230B70013B1380D6E709230B7004
S214004C10053B1380D1E70A230B7019331380CCE7CA
S214004C200B230B70032C02D018331380C5E7042324
S214004C30FBE70C230B70083B1380BEE70D230B70BD
S214004C40093B1380B9E70E230B7015331380B4E7C6
S214004C500F230B7064B2002C02DB083B1380ACE71A
S214004C602323FBE710230B70022C02D0093B138092
S214004C70A3E72323FBE711230B703A3313809CE74B
S214004C8012230B700E3B138097E713230B700F3B1A
S214004C90138092E714230B70103B13808DE7C046F9
S214004CA03C450100F0B585B005000E00002843D055
S214004CB0002943D003AA02ABD91D214B98470024F4
S214004CC0002802D0200005B0F0BD2C78601C1D4BDB
S214004CD0984707000130220029001B4B98471B4BC2
S214004CE098471B4B18681B4B984701000090687844
S214004CF0194B9847041EE5D1184B9847041EE1D17E
S214004D00124B9847164B984701902A783900154B56
S214004D109847041ED6D1009B5888134B984703AA81
S214004D2031000198114B9847041ECBD1104B984781
S214004D303800104B9847C5E70024C3E70024C1E7B6
S214004D40A14B000049090100C9090100DD3500003A
S214004D50D0050020C95F0000A55C0000E935000012
S214004D60CD5F000001600000956E00000960000045
S214004D70053600005D090100F0B583B0051E36D08B
S214004D8001AA6B46D91D1B4B98470024002802D069
S214004D90200003B0F0BD2C78601C174B9847060027
S214004DA0013022002900154B9847154B9847154BA4
S214004DB09847070068783900134B9847041EE7D1D8
S214004DC0124B9847041EE3D10D4B9847104B98475B
S214004DD02A7831000F4B9847041ED9D178880E4B9D
S214004DE098470E4B984730000D4B9847D0E7002465
S214004DF0CEE7C046A14B000049090100C9090100E1
S214004E00DD350000C95F0000A55C0000E935000044
S214004E10CD5F000001600000956E000005360000C2
S214004E205D09010030B583B00D1E6B46D88016D0E4
S214004E300C4B98470C4B9847041E02D0200003B03A
S214004E4030BD084B9847094B98476B469A1D29007A
S214004E50074B9847041EF1D1064B9847EEE700240F
S214004E60ECE7C046DD350000E9350000CD5F000008
S214004E700960000005360000F8B504000D001600B5
S214004E8000281CD000291CD0002A1CD02821104B3A
S214004E909847071E19D029210D4B9847431E002816
S214004EA008D0791C3160D81B80B20A4B98472880FE
S214004EB00020F8BD2000084B98472318F1E7C320D0
S214004EC0F7E7C320F5E7C320F3E7C320F1E7C046C2
S214004ED08B0F0100314A0000A70F010030B583B0E8
S214004EE0080015001C003A213A4B984700232B80F7
S214004EF0002867D04378613BDAB2162A64D893005C
S214004F00354AD3589F4602306A46911D334B984720
S214004F1000280CD10023237021000098304B9847BE
S214004F20002804D123782B8001E02E4B984703B04D
S214004F3030BD2D4B9847FAE72C4B9847F7E70230E1
S214004F406A46911D254B9847F1E701303A21214BDF
S214004F50984700283AD04378722B16D0DAB2722AD5
S214004F6006D9732B24D0772B32D11E4B9847DEE719
S214004F70632B2DD102306A46911D184B98470028A6
S214004F80D5D100981A4B9847D1E702306A46911D52
S214004F90124B98470028CAD100232370009B18782C
S214004FA02100144B98470028C1D123782B80BEE7F8
S214004FB002306A46911D094B98470028B7D00B4B24
S214004FC09847B4E70020B2E7C020B0E70020AEE77D
S214004FD0C020ACE78B0F01005C460100794E000054
S214004FE0A54C0000E935000021360000053600001B
S214004FF0794D0000254E0000F0B5DE4657464E4679
S2140050004546E0B583B001908846421E93B25200F2
S21400501092B2511D89B20091111D89B20A204446F0
S2140050206054911C89B28B46033292B22921A15456
S214005030002B1ED05C461C4A91465F1EBFB24246FD
S214005040D65C651EADB2A246C2443000C847534681
S2140050501870023CA4B245443009C84728703B1E6D
S214005060EBD1019AD3039B1A5B0002335B449BB2DD
S2140050709B46282342465946535415784C1EA4B2E4
S21400508044442800084EB04720705B469C1EA4B2DD
S21400509044442809B0472070009803B03CBC9046B2
S2140050A09946A246AB46F0BDF5490000F0B5C646A7
S2140050B000B588B0080015001C0001221E236B44B2
S2140050C01A8002AA964BC2CBC2C21B6813603A2152
S2140050D0944B9847002800D120E101230E9A1370C4
S2140050E04378642B00D1A5E0662B41D0612B0FD00E
S2140050F00027C026E1190E701E236B4418888A4BC1
S21400510098473F182F80300008B004BC9046F0BD8A
S21400511006AA1E216944854B9847060000270028EA
S214005120E8D10698002800D1F2E01E236B441F88C1
S214005130E236002FDED00378002B02D00027D226DE
S214005140D8E7072F02D80027D226D3E7461C877950
S21400515043790279C17840788446707800026646C2
S214005160304301970097724EB04700273E00C1E7D4
S21400517006AA1E2169446D4B9847060000270028A2
S214005180B8D104221E236B441A80069B1B78012B81
S2140051901AD0002B06D0022B28D0032B38D000279D
S2140051A0C326A7E70E2263492000634B984698471C
S2140051B02000624B984787B20004000C013020188C
S2140051C004225F49C04795E708225E4920005A4BF3
S2140051D0984698472000594B984787B20004000C21
S2140051E00130201804225849C04783E7082257494F
S2140051F02000514B984698472000504B984787B25E
S2140052000004000C0130201804225149C04771E701
S214005210082250492000484B984698472000474BA4
S214005220984787B20004000C0130201804224A492F
S214005230C0475FE706AA1E2169443C4B9847060014
S2140052400027002800D055E7444B98470700069BE8
S2140052501B789846424B1B7843455CD94346DA0098
S214005260404B9B185A780C2A26D893003E4AD358AF
S2140052709F460822334920002F4B98474346DB00C1
S214005280384A9B5C002B1DD120002C4B984787B2D8
S21400529030E708222D492000274B9847EEE70822E2
S2140052A02C492000244B9847E8E70B222F49200082
S2140052B0214B9847C526E1E70F222D4920001E4BBB
S2140052C09847DBE7BF0002ABF9582000294B984708
S2140052D020001A4B984787B21E226A44138801336F
S2140052E013800204120C0132A2184346DB001D494B
S2140052F05B5C022B06D04346DB001A49CB18DB78F2
S2140053001370F7E64346D900164B5B189B78F7E711
S2140053100027E226EEE60027C526EBE6C026F2E6E4
S214005320EC4601008B0F0100F94F0000794E00009B
S214005330C53B00001C470100C9090100A70F01007A
S214005340044701002C4701000847010034470100CC
S214005350FC4601003C47010000470100654B000089
S214005360E00B0020042B0020B84601004447010053
S2140053700C470100710F010010B57B2802D9C2232B
S2140053800B707B20014B984710BDC046F94F0000BC
S214005390F0B5DE4657464E464546E0B585B00700B2
S2140053A08B4600220F236B441A70013883B29A464C
S2140053B0354A00213548364B98475346002B19D0BE
S2140053C0344C023FBFB20137E719334B99460323EB
S2140053D0984603E032700134BC420BD02600257894
S2140053E0C84740194378424613402A00012BF1D1A2
S2140053F02032EFE7274B1B786C2B0CD025490B7817
S214005400652B12D0732B10D0622B31D001235A4655
S2140054101380C0200FE000223A211E481F4B9847F9
S21400542003005A1E9341C118E9E7184B01335A4648
S21400543050461B4CA0470F236B441B78002B0FD104
S214005440124B18705B461B887A2B02D801335A46DB
S21400545013805B4618880D49124B98475B461880A8
S2140054600A4805B03CBC90469946A246AB46F0BDFD
S214005470FF20534618400F236B440093034B5A46B5
S214005480094CA047D7E7C046FC080000E0140020FF
S214005490FF090100E40B00205508010095090100F2
S2140054A0DD4E000079530000AD50000030B583B0EB
S2140054B00D4B1B68002B01D103B030BD32220B4BC5
S2140054C01A606B469C1D0A4D28882100094B984798
S2140054D000232B8021880848084B9847024A136807
S2140054E0013B1360E8E7C046F42A0020DC0B0020EE
S2140054F0DE05002091530000E0140020053C00006B
S2140055000023038083607047F0B5E3B004002B4BA4
S214005510984706002A4B984705002A4B98470700ED
S214005520642105A8284B9847002839D10297FA210C
S21400553089002800254B98470191FA218900280008
S214005540234B984700903300224A802149001EA82A
S214005550214DA8475EAB01221A7000225A709A703D
S2140055601E4B1B8801339BB21D4A93421CD01B4A1C
S21400557013805EAD194B1B88AB801EAE6096300064
S214005580184B9847E86031001748184B98472A0090
S21400559005A92000164B9847002809D163B0F0BD36
S2140055A01448124B9847F9E701220C4B1A80E0E7A3
S2140055B0010011480D4B9847F0E7C046A13B00009C
S2140055C0B93A0000F53A0000055B000071E60000FD
S2140055D065E500002C480100210E0100B4260020DD
S2140055E0FEFF0000A70F01006C480100610B0100E0
S2140055F0597A0000104801008C48010070B504007C
S21400560003689A68D9682248224B984723689D68A1
S214005610DE68320029002048204B984700282AD010
S214005620320029001E481D4B984700282BD02368BF
S21400563098681C4B98471C4B984704001B491C4B0A
S2140056409847002801D01B4B98471B4920001B4B4E
S2140056509847002801D01A4B98471A4920001A4B41
S21400566098471A4B9847FA239B00984202D9184B42
S214005670184AD05270BD00210130174B98470220BF
S214005680164B9847D3E70130144B9847CFE7C046F0
S214005690C0470100610B0100D8470100B50F0100AB
S2140056A0E0470100B99100006D8B0000E84701005B
S2140056B0B18B0000FD390000F8470100858B000023
S2140056C0913A000004480100F58B00009DE90000B7
S2140056D0D4080000DC1D0020397200006973000049
S2140056E030B585B004000F4BC3600F4B03618E23AB
S2140056F0DB00C31801000C3114308022D200029265
S2140057002500703501950092FA22D200074DA84771
S214005710074A084BE252012323800023A36005B00A
S21400572030BDC046FD830000118400007D7400007B
S21400573088130000D408000070B50400104B98478A
S214005740002809D1A368002B08D020001430FA21C5
S21400575049000C4B984770BD002323800A4BE55A3E
S21400576064212800094B9847A060002D03D000282C
S21400577001D10123A36020001430054B9847EAE7C7
S214005780C942000009780000D408000065E5000062
S2140057900955000010B504008368002B00D010BD2A
S2140057A0064B9847002804D0022323800023A360DA
S2140057B0F5E7034B98476423A360F0E7A13B00009E
S2140057C04D430000F0B597B004008368002B01D06D
S2140057D017B0F0BD64338360050070356A468021DB
S2140057E0C9002800374B98470028F1D16B46198826
S2140057F02800354B98470028EAD158223349684696
S214005800334B9847E1239B006A4613830395802118
S214005810C90028002F4B984700284BD1039E300024
S2140058202D4B9847451C701910908021C9004D1BC0
S21400583029002A4B984700283CD1109E3000264B62
S2140058409847411C70181390691A254B98470028F2
S21400585030D12600143669463000224B984700287F
S2140058602AD187231B01E718642138001E4B98476E
S214005870051E17D139001D481D4B984700210020F2
S2140058801C4B984702201C4B98471C4B01223900A2
S21400589030001B4DA847051E07D103232380002395
S2140058A0A36095E71748124B984729001648104BF7
S2140058B098478DE701204042010014480C4B98475A
